{
  "contractName": "RedEnvelope",
  "abi": [
    {
      "constant": false,
      "inputs": [
        {
          "name": "_passcode",
          "type": "string"
        },
        {
          "name": "_envelopeIndex",
          "type": "uint256"
        }
      ],
      "name": "checkPasscode",
      "outputs": [
        {
          "name": "",
          "type": "bool"
        }
      ],
      "payable": false,
      "stateMutability": "nonpayable",
      "type": "function"
    },
    {
      "constant": true,
      "inputs": [],
      "name": "envelopeIndex",
      "outputs": [
        {
          "name": "",
          "type": "uint256"
        }
      ],
      "payable": false,
      "stateMutability": "view",
      "type": "function"
    },
    {
      "constant": false,
      "inputs": [
        {
          "name": "_envelopeIndex",
          "type": "uint256"
        },
        {
          "name": "_claimer",
          "type": "address"
        }
      ],
      "name": "getClaimInfo",
      "outputs": [
        {
          "name": "",
          "type": "uint256"
        }
      ],
      "payable": false,
      "stateMutability": "nonpayable",
      "type": "function"
    },
    {
      "constant": false,
      "inputs": [
        {
          "name": "_passcode",
          "type": "string"
        }
      ],
      "name": "buyEnvelope",
      "outputs": [
        {
          "name": "",
          "type": "bool"
        }
      ],
      "payable": true,
      "stateMutability": "payable",
      "type": "function"
    },
    {
      "constant": false,
      "inputs": [
        {
          "name": "_envelopeIndex",
          "type": "uint256"
        }
      ],
      "name": "getRemainingBalance",
      "outputs": [
        {
          "name": "",
          "type": "uint256"
        }
      ],
      "payable": false,
      "stateMutability": "nonpayable",
      "type": "function"
    },
    {
      "constant": false,
      "inputs": [
        {
          "name": "_envelopeIndex",
          "type": "uint256"
        }
      ],
      "name": "getEnvelopeInfo",
      "outputs": [
        {
          "name": "",
          "type": "uint256"
        },
        {
          "name": "",
          "type": "address"
        },
        {
          "name": "",
          "type": "uint256"
        },
        {
          "name": "",
          "type": "uint256"
        },
        {
          "name": "",
          "type": "uint256"
        },
        {
          "name": "",
          "type": "uint256"
        }
      ],
      "payable": false,
      "stateMutability": "nonpayable",
      "type": "function"
    },
    {
      "constant": false,
      "inputs": [
        {
          "name": "_envelopeIndex",
          "type": "uint256"
        }
      ],
      "name": "totalClaims",
      "outputs": [
        {
          "name": "",
          "type": "uint256"
        }
      ],
      "payable": false,
      "stateMutability": "nonpayable",
      "type": "function"
    },
    {
      "constant": false,
      "inputs": [
        {
          "name": "_passcode",
          "type": "string"
        },
        {
          "name": "_envelopeIndex",
          "type": "uint256"
        }
      ],
      "name": "claim",
      "outputs": [],
      "payable": false,
      "stateMutability": "nonpayable",
      "type": "function"
    },
    {
      "inputs": [],
      "payable": false,
      "stateMutability": "nonpayable",
      "type": "constructor"
    },
    {
      "anonymous": false,
      "inputs": [
        {
          "indexed": true,
          "name": "_from",
          "type": "address"
        },
        {
          "indexed": false,
          "name": "_id",
          "type": "uint256"
        },
        {
          "indexed": false,
          "name": "_value",
          "type": "uint256"
        }
      ],
      "name": "Claimed",
      "type": "event"
    }
  ],
  "bytecode": "0x6060604052341561000f57600080fd5b6000600281905550610c94806100266000396000f30060606040526004361061008e576000357c0100000000000000000000000000000000000000000000000000000000900463ffffffff1680633b27818314610093578063470259c31461011157806358a187ef1461013a5780635b9575da1461019057806378e94dd2146101fa578063a330681914610231578063bbc538fb146102b7578063e64d2fb4146102ee575b600080fd5b341561009e57600080fd5b6100f7600480803590602001908201803590602001908080601f01602080910402602001604051908101604052809392919081815260200183838082843782019150505050505091908035906020019091905050610354565b604051808215151515815260200191505060405180910390f35b341561011c57600080fd5b6101246104be565b6040518082815260200191505060405180910390f35b341561014557600080fd5b61017a600480803590602001909190803573ffffffffffffffffffffffffffffffffffffffff169060200190919050506104c4565b6040518082815260200191505060405180910390f35b6101e0600480803590602001908201803590602001908080601f01602080910402602001604051908101604052809392919081815260200183838082843782019150505050505091905050610526565b604051808215151515815260200191505060405180910390f35b341561020557600080fd5b61021b60048080359060200190919050506107a3565b6040518082815260200191505060405180910390f35b341561023c57600080fd5b6102526004808035906020019091905050610874565b604051808781526020018673ffffffffffffffffffffffffffffffffffffffff1673ffffffffffffffffffffffffffffffffffffffff168152602001858152602001848152602001838152602001828152602001965050505050505060405180910390f35b34156102c257600080fd5b6102d86004808035906020019091905050610973565b6040518082815260200191505060405180910390f35b34156102f957600080fd5b610352600480803590602001908201803590602001908080601f01602080910402602001604051908101604052809392919081815260200183838082843782019150505050505091908035906020019091905050610a44565b005b6000806000806001866040518082805190602001908083835b602083101515610392578051825260208201915060208101905060208303925061036d565b6001836020036101000a038019825116818451168082178552505050505050905001915050908152602001604051809103902060009054906101000a900473ffffffffffffffffffffffffffffffffffffffff1692508286604051808373ffffffffffffffffffffffffffffffffffffffff1673ffffffffffffffffffffffffffffffffffffffff166c0100000000000000000000000002815260140182805190602001908083835b602083101515610460578051825260208201915060208101905060208303925061043b565b6001836020036101000a03801982511681845116808217855250505050505090500192505050604051809103902091506000808681526020019081526020016000209050806001015460001916826000191614935050505092915050565b60025481565b60008060008085815260200190815260200160002090508060070160008473ffffffffffffffffffffffffffffffffffffffff1673ffffffffffffffffffffffffffffffffffffffff1681526020019081526020016000205491505092915050565b600080610531610c11565b6101f43411151561054157600080fd5b60016002600082825401925050819055503384604051808373ffffffffffffffffffffffffffffffffffffffff1673ffffffffffffffffffffffffffffffffffffffff166c0100000000000000000000000002815260140182805190602001908083835b6020831015156105ca57805182526020820191506020810190506020830392506105a5565b6001836020036101000a038019825116818451168082178552505050505050905001925050506040518091039020915060e0604051908101604052806002548152602001836000191681526020013373ffffffffffffffffffffffffffffffffffffffff16815260200142815260200134815260200134815260200160008152509050336001856040518082805190602001908083835b6020831015156106865780518252602082019150602081019050602083039250610661565b6001836020036101000a038019825116818451168082178552505050505050905001915050908152602001604051809103902060006101000a81548173ffffffffffffffffffffffffffffffffffffffff021916908373ffffffffffffffffffffffffffffffffffffffff160217905550806000806002548152602001908152602001600020600082015181600001556020820151816001019060001916905560408201518160020160006101000a81548173ffffffffffffffffffffffffffffffffffffffff021916908373ffffffffffffffffffffffffffffffffffffffff160217905550606082015181600301556080820151816004015560a0820151816005015560c08201518160060155905050600192505050919050565b60006107ad610c11565b60008084815260200190815260200160002060e06040519081016040529081600082015481526020016001820154600019166000191681526020016002820160009054906101000a900473ffffffffffffffffffffffffffffffffffffffff1673ffffffffffffffffffffffffffffffffffffffff1673ffffffffffffffffffffffffffffffffffffffff16815260200160038201548152602001600482015481526020016005820154815260200160068201548152505090508060a00151915050919050565b600080600080600080610885610c11565b60008089815260200190815260200160002060e06040519081016040529081600082015481526020016001820154600019166000191681526020016002820160009054906101000a900473ffffffffffffffffffffffffffffffffffffffff1673ffffffffffffffffffffffffffffffffffffffff1673ffffffffffffffffffffffffffffffffffffffff168152602001600382015481526020016004820154815260200160058201548152602001600682015481525050905080600001518160400151826060015183608001518460a001518560c001519650965096509650965096505091939550919395565b600061097d610c11565b60008084815260200190815260200160002060e06040519081016040529081600082015481526020016001820154600019166000191681526020016002820160009054906101000a900473ffffffffffffffffffffffffffffffffffffffff1673ffffffffffffffffffffffffffffffffffffffff1673ffffffffffffffffffffffffffffffffffffffff16815260200160038201548152602001600482015481526020016005820154815260200160068201548152505090508060c00151915050919050565b6000806000808481526020019081526020016000209150610a658484610354565b1515610a7057600080fd5b60008260050154111515610a8357600080fd5b610a908260050154610b9d565b90508082600501600082825403925050819055503373ffffffffffffffffffffffffffffffffffffffff166108fc829081150290604051600060405180830381858888f193505050501515610ae457600080fd5b60018260060160008282540192505081905550808260070160003373ffffffffffffffffffffffffffffffffffffffff1673ffffffffffffffffffffffffffffffffffffffff168152602001908152602001600020819055503373ffffffffffffffffffffffffffffffffffffffff167f987d620f307ff6b94d58743cb7a7509f24071586a77759b77c2d4e29f75a2f9a836000015483604051808381526020018281526020019250505060405180910390a250505050565b60008066017dfcdece4000831015610bb757829150610c0b565b66017dfcdece40008084034260405180828152602001915050604051809103902060019004811515610be557fe5b06019050600081111515610bf857600080fd5b828111151515610c0757600080fd5b8091505b50919050565b60e0604051908101604052806000815260200160008019168152602001600073ffffffffffffffffffffffffffffffffffffffff1681526020016000815260200160008152602001600081526020016000815250905600a165627a7a72305820cf5020738144ae6f0feeefb78759e2c81198b153c4346583b28a6ef7adac89650029",
  "source": "pragma solidity ^0.4.13;\n\ncontract RedEnvelope {\n\n\tstruct Envelope {\n\t\tuint id;\n\t\tbytes32 hash;\n\t\taddress creatorAddress;\n\t\tuint startTime;\n\t\tuint initialBalance;\n\t\tuint remainingBalance;\n\t\tuint totalClaims;\n\t\tmapping (address => uint) claims;\n\t}\n\n\tmapping (uint => Envelope) private envelopes;\n\tmapping (string => address) private textToAddress;\n\n\tevent Claimed(\n\t\taddress indexed _from,\n\t\tuint _id,\n\t\tuint _value\n\t);\n\n\tuint public envelopeIndex;\n\t\n\tfunction RedEnvelope() public {\n\t\tenvelopeIndex = 0;\n\t}\n\n\n\t// Create an envelope by paying ether\n\n\tfunction buyEnvelope(string _passcode) payable public returns (bool) {\n\t\t\n\t\trequire (msg.value > 500);\n\n\t\tenvelopeIndex += 1;\n\t\tbytes32 envHash = sha3(msg.sender, _passcode);\n\t\t\n\t\tEnvelope memory env = Envelope(\n\t\t\tenvelopeIndex,\n\t\t\tenvHash,\n\t\t\tmsg.sender,\n\t\t\tnow,\n\t\t\tmsg.value,\n\t\t\tmsg.value,\n\t\t\t0\n\t\t);\n\n\t\ttextToAddress[_passcode] = msg.sender;\n\t\tenvelopes[envelopeIndex] = env;\n\n    \treturn true;\n\t}\n\n\t\n\t// Check passcode\n\n\tfunction checkPasscode(string _passcode, uint _envelopeIndex) public returns (bool) {\n\t\taddress creator = textToAddress[_passcode];\n\t\tbytes32 submittedHash = sha3(creator, _passcode);\n\n\t\tEnvelope storage env = envelopes[_envelopeIndex];\n\n\t\treturn submittedHash == env.hash;\n\t}\n\n\tfunction claim(string _passcode, uint _envelopeIndex) public {\n\t\tEnvelope storage env = envelopes[_envelopeIndex];\n\n\t\trequire (checkPasscode(_passcode, _envelopeIndex));\n\t\trequire (env.remainingBalance > 0);\n\n\t\tuint claimAmount = generateClaimAmount(env.remainingBalance);\n\t\tenv.remainingBalance -= claimAmount;\n\n\t\tmsg.sender.transfer(claimAmount);\n\t\tenv.totalClaims += 1;\n\t\tenv.claims[msg.sender] = claimAmount;\n\n\t\tClaimed(msg.sender, env.id, claimAmount);\t\t\n\t}\n\n\t// Getters\n\n\tfunction getEnvelopeInfo(uint _envelopeIndex) public returns (uint, address, uint, uint, uint, uint) {\n\t\tEnvelope memory env = envelopes[_envelopeIndex];\n\t\treturn (env.id, env.creatorAddress, env.startTime, env.initialBalance, env.remainingBalance, env.totalClaims);\n\t}\n\n\tfunction getRemainingBalance(uint _envelopeIndex) public returns (uint) {\n\t\tEnvelope memory env = envelopes[_envelopeIndex];\n\t\treturn env.remainingBalance;\n\t}\n\n\tfunction totalClaims(uint _envelopeIndex) public returns (uint) {\n\t\tEnvelope memory env = envelopes[_envelopeIndex];\n\t\treturn env.totalClaims;\n\t}\n\n\tfunction getClaimInfo(uint _envelopeIndex, address _claimer) public returns (uint) {\n\t\tEnvelope storage env = envelopes[_envelopeIndex];\n\t\treturn env.claims[_claimer];\n\t}\n\n\tfunction getEnvelopeHash(uint _envelopeIndex) private returns (bytes32) {\n\t\tEnvelope memory env = envelopes[_envelopeIndex];    \n\t\treturn (env.hash);\n\t}\n\n\t// Helper\n\n\tfunction generateClaimAmount(uint _remainingBalance) private constant returns (uint) {\n\n\t\tif (_remainingBalance < 420000000000000) {\n\t\t\treturn _remainingBalance;\n\t\t} \n\t\t\n\t\tuint amount = uint(sha3(block.timestamp))%(_remainingBalance-420000000000000)+420000000000000;\n\n\t\trequire (amount > 0);\n\t\trequire (amount <= _remainingBalance);\n\t\treturn amount;\n\t}\n\n}\n",
  "sourcePath": "/Users/Ohjia/Documents/blockchain/redenvelope_dapp/contracts/RedEnvelope.sol",
  "compiler": {
    "name": "solc",
    "version": "0.4.18+commit.9cf6e910.Emscripten.clang"
  },
  "schemaVersion": "1.0.1",
  "updatedAt": "2017-12-01T18:38:56.142Z"
}